:100000000C942A000C9447000C9447000C94470071
:100010000C9447000C9447000C9447000C94470044
:100020000C9447000C9447000C9447000C94470034
:100030000C9447000C9447000C9447000C94470024
:100040000C9447000C9447000C9447000C94470014
:100050000C94470011241FBECFE5D8E0DEBFCDBF12
:1000600011E0A0E6B0E0ECECF5E102C005900D92E5
:10007000A034B107D9F711E0A0E4B1E001C01D92AE
:10008000A234B107E1F70E94E2090C94E40A0C944F
:1000900000003E9A86B1876886B908951F93CF9372
:1000A000DF9300D000D0CDB7DEB727B18770992796
:1000B000282B27B9369A349BFECF349A64B175B198
:1000C00080E090E00E94DB0720E030E040E85AE367
:1000D0000E941C0617B816B869837A838B839C83A9
:1000E0000E94490020E030E040EA50E469817A81D2
:1000F0008B819C810E941C060F900F900F900F9097
:10010000DF91CF911F91089581B3806781BB84B344
:100110008C6184BB08958FB5816A8FBD8EB58A606E
:100120008EBD8EE390E097BD86BD089580E382BBCF
:1001300088E185BB2FEF83ED90E321508040904014
:10014000E1F700C00000AC982FEF89E698E121505C
:1001500080409040E1F700C00000089582B38067BE
:1001600082BBAB9A2FEF83ED90E32150804090400B
:10017000E1F700C000009698AB9885B3846185BB19
:100180002FEF83ED90E3215080409040E1F700C0D5
:10019000000015BA08958FEF90E099BD88BD0E94C8
:1001A000840080E482BB84E085BB0E948B00C0E0B9
:1001B000D0E0CF9902C0219602C0CE9B2197DBBD33
:1001C000CABD65E070E0CE010E941B048FE19EE491
:1001D0000197F1F700C0000060E081E00E94AC03ED
:1001E000E8CF80EB87BB81E58DB90895779BFECF83
:1001F0008FB190E008958FB9779BFECF0895CF938C
:10020000DF93EC0181E090E00E94FB00CE01DF91E2
:10021000CF910C94FB00CF93DF93EC0182E090E050
:100220000E94FB00CE010E94FB00DF91CF910C9455
:10023000F600EF92FF920F931F93CF93DF93EC01A1
:100240007B018A0183E090E00E94FB00CE010E94C6
:10025000FB00C7010E94FB00C801DF91CF911F91F5
:100260000F91FF90EF900C94FB000F931F93CF938F
:10027000DF93EC018B0184E090E00E94FB00CE0153
:100280000E94FB00C8010E94FB00DF91CF911F91EB
:100290000F910C94F600899A86E089B988E18AB9B1
:1002A00086E880BD08955D9BFECF8CB908955F9B65
:1002B000FECF8CB190E00895C7E0D0E0CF9902C0A6
:1002C000219602C0CE9B2197CE010E94FF0063E0E1
:1002D00070E0CE010E941B049F9908C061E080E09D
:1002E0000E94650488E690E00E940E042FEF89EFDB
:1002F00090E0215080409040E1F700C0000060E0B5
:1003000081E00E94AC03DACF0E944B010E9484007E
:100310002FEF33ED80E3215030408040E1F700C003
:100320000000C0E3D8E19698C2BBCF990BC0969A63
:10033000AB9A81E790E00E940E04CF9BFECF969887
:10034000AB9860C0CE990AC0AA9AAC9A8BE790E0AD
:100350000E940E04CE9BFECFAA9854C09F994CC019
:1003600085E890E00E940E048FE090E00E94FF007C
:100370009FEF29E638E1915020403040E1F700C07E
:10038000000013B38DE190E00E94FF008FEF99E62B
:1003900028E1815090402040E1F700C0000083B385
:1003A0008078D5BB3FEF93ED20E331509040204063
:1003B000E1F700C0000017FD09C0AB983FEF89E6E8
:1003C00098E1315080409040E1F712C0AC98811123
:1003D00008C02FEF39E688E1215030408040E1F736
:1003E00007C09FEF29E638E1915020403040E1F707
:1003F00000C0000015BA06C085E990E00E940E0416
:10040000969AAA9A8FE99FE00197F1F700C0000041
:1004100060E081E00E94AC0315BA86E190E00E94A2
:10042000FF0081CF009719F489E990E039C081304D
:10043000910519F489EA90E005C08230910559F4DC
:1004400089EB90E00E940E0461E08EE00E9465045A
:1004500086EA90E032C08330910519F486EC90E092
:1004600017C08430910519F489ED90E011C08530F2
:10047000910519F48BEE90E00BC08630910519F4CC
:100480008DEF90E005C08730910599F48DE091E003
:100490000E940E0461E080E00E94650486EB90E01B
:1004A0000E940E0461E08EE00E94650486EA90E0FE
:1004B0000CC0089761F48BE191E00E940E0461E0AA
:1004C00080E00E94650486EB90E00C940E04089591
:1004D0003AC08091400190914101CF9902C00197AB
:1004E00003C0CE991DC001969093410180934001B5
:1004F0000E9412022FEF89EF90E02150804090403F
:10050000E1F700C0000060E081E00E94AC032FEF43
:1005100085EA9EE0215080409040E1F700C0000055
:1005200080914001909141010E9412022FEF89EFCA
:1005300090E0215080409040E1F700C0000060E072
:1005400081E00E94AC039F99C4CF089580E090E0C1
:100550000E944E000E948C07DC01CB0161E070E03C
:100560000E941B0481E090E00E944E000E948C07D4
:10057000DC01CB0161E070E00E941B0482E090E0AE
:100580000E944E000E948C07DC01CB0161E070E00C
:100590000E941B0483E090E00E944E000E948C07A2
:1005A000DC01CB0161E070E00E941B0484E090E07C
:1005B0000E944E000E948C07DC01CB0161E070E0DC
:1005C0000E941B042FEF89EF90E021508040904063
:1005D000E1F700C0000060E081E00E94AC03B6CF0C
:1005E000CF93DF93CDB7DEB764970FB6F894DEBF35
:1005F0000FBECDBF0E94840080E382BB8E010B5EE4
:100600001F4F80E090E00E944E0069837A838B83C5
:100610009C8381E090E00E944E006D837E838F83F7
:10062000988782E090E00E944E0069877A878B87E6
:100630009C8783E090E00E944E006D877E878F87C5
:10064000988B84E090E00E944E00698B7A8B8B8BB4
:100650009C8BAA24A394B12CAC0EBD1E4501C12CC9
:10066000D12CE12CF12CF401619171918191919146
:100670004F01F701EE0FFF1FEE0FFF1F21E030E0EB
:100680002C0F3D1FE20FF31F2081318142815381E6
:100690000E94010718160CF476013FEFC31AD30A23
:1006A00085E0C816D104F9F6F50161917191819147
:1006B00091915F010E948C07DC01CB0161E070E049
:1006C0000E941B04A016B10679F7F2E0EF16F104C0
:1006D00051F05CF4E114F10419F0EA94EF2829F4E4
:1006E000AA9A969804C0AA9A01C0AA98969A60E01D
:1006F00081E00E94AC0385CF87B3807F87BBAD9A32
:10070000AE9882E08A95F1F700C0A99A92E09A9596
:10071000F1F700C086B38295807F92E09A95F1F759
:1007200000C0A99895E09A95F1F70000A99A92E087
:100730009A95F1F700C096B392E09A95F1F700C050
:10074000A99895E09A95F1F7000087FDDECFAD9866
:1007500087B38F6087BB0895282F22952F708F70E5
:10076000611102C0AE9801C0AE9A92E09A95F1F77D
:1007700000C0A99A98B3907F922B98BB95E09A9568
:10078000F1F70000A99895E09A95F1F70000A99A71
:1007900098B3907F982B98BB85E08A95F1F700007D
:1007A000A99895E09A95F1F700000C947C03CF93FB
:1007B000DF931F92CDB7DEB72FEF36E791E02150E0
:1007C00030409040E1F700C0000097B39F6097BBB6
:1007D000A19AA69AA59A98B3907F98BBA998AD982C
:1007E000AE9800C000C00000A99AC19AE5E0EA9561
:1007F000F1F70000A998F5E0FA95F1F70000898378
:100800000E947C0360E089818C600E94AC0360E000
:1008100088E20F90DF91CF910C94AC03CF93DF93DC
:10082000EC0103C061E00E94AC0389918111FACF11
:10083000DF91CF9108950F931F93CF93DF9300D053
:1008400000D01F92CDB7DEB79B01FE01319645E087
:10085000DF011D924A95E9F7FE0136960AE010E0A5
:1008600005C0B8010E946A0A8293CB010097C9F7BC
:100870002F3FBFEF3B0751F4FE013196CF018F01AF
:10088000081B190B21912223D1F312C005E010E0BF
:10089000021B130B0DC0E1E0F0E0EC0FFD1FE00FB9
:1008A000F11F808161E0805D0E94AC030F5F1F4FEC
:1008B0000530110584F30F900F900F900F900F905B
:1008C000DF91CF911F910F910895883230F461111B
:1008D000806460E080680C94AC030895A0E0B0E010
:1008E000E4E7F4E00C94960A3C01CB01EA01D30161
:1008F0002C91223008F43EC1FB013081323008F4E3
:1009000036C1243071F4343009F034C111962C9181
:100910008181281709F42EC1B0E66B2EB0E07B2E42
:1009200029C1343009F423C1323091F4223009F066
:1009300021C128E0F301DA0101900D922A95E1F737
:10094000DB0111968C91F30191818923898311C177
:10095000223009F40CC1D3011296ED91FC9113974A
:10096000DB0112966D917C911397D30114960D9132
:100970001D912D913C911797DC011496CD90DD903F
:10098000ED90FC901797AF01461B570BDA0157FF0C
:1009900004C0AA27BB27A41BB50BA032B1050CF0DD
:1009A00065C0141615067CF5B701A6010A2E04C011
:1009B00076956795579547950A94D2F7812C912C97
:1009C0005401839404C0880C991CAA1CBB1CAA95D2
:1009D000D2F7B1E08B1A9108A108B1088C209D20B4
:1009E000AE20BF20C12CD12C7601C3948114910478
:1009F000A104B10419F4C12CD12C7601C42AD52A42
:100A0000E62AF72A3EC0452BE1F1EA0FFB1FB901A8
:100A1000A8010A2E04C076956795579547950A94C4
:100A2000D2F7812C912C5401839404C0880C991C1A
:100A3000AA1CBB1CAA95D2F7A1E08A1A9108A108AA
:100A4000B10880229122A222B32201E010E020E02E
:100A500030E081149104A104B10419F400E010E025
:100A60009801042B152B262B372B0BC06E177F07F5
:100A700024F4C12CD12C760104C0FB0100E010E06D
:100A80009801D30111964C91DC0111968C91481775
:100A900009F442C0442349F0D701C601801B910BE1
:100AA000A20BB30B8C019D0104C00C191D092E096A
:100AB0003F0937FD04C01982FB83EA830BC081E044
:100AC0008983FB83EA8330952095109501951F4F0C
:100AD0002F4F3F4F0C831D832E833F830DC0880F04
:100AE000991FAA1FBB1F8C839D83AE83BF838A81FE
:100AF0009B8101979B838A838C819D81AE81BF817D
:100B00008C019D0101501109210931090F3F1F4F2F
:100B10002F4F3F4320F30BC04983FB83EA830C0D27
:100B20001D1D2E1D3F1D0C831D832E833F8383E0DF
:100B300088830C811D812E813F8137FF1AC0D90126
:100B4000C80181709927AA27BB2736952795179545
:100B50000795802B912BA22BB32B8C839D83AE8387
:100B6000BF838A819B8101969B838A8302C03C015B
:100B700001C03E01C301CDB7DEB7EEE00C94B20A6E
:100B8000A0E2B0E0E6ECF5E00C94A20A6D8F7E8F57
:100B90008F8F98A3298F3A8F4B8F5C8FBE016F5E2A
:100BA0007F4FCE014D960E941209BE01675F7F4FB5
:100BB000CE0149960E941209AE014F5F5F4FBE0100
:100BC000675F7F4FCE0141960E946E040E945108DC
:100BD000A096E2E00C94BE0AA0E2B0E0E2EFF5E0FD
:100BE0000C94A20A6D8F7E8F8F8F98A3298F3A8FD6
:100BF0004B8F5C8FBE016F5E7F4FCE014D960E9482
:100C00001209BE01675F7F4FCE0149960E9412090B
:100C10008A8591E089278A87AE014F5F5F4FBE01C9
:100C2000675F7F4FCE0141960E946E040E9451087B
:100C3000A096E2E00C94BE0AA0E2B0E0E2E2F6E0A8
:100C40000C94940A6D8F7E8F8F8F98A3298F3A8F83
:100C50004B8F5C8FBE016F5E7F4FCE014D960E9421
:100C60001209BE01675F7F4FCE0149960E941209AB
:100C70009989923008F412C08985823008F41AC02C
:100C8000943021F4823009F4B4C008C0843021F4D7
:100C9000923009F4AEC00EC0923051F481E02A893E
:100CA0009A85291301C080E08A8BCE014196A3C0AA
:100CB000823051F481E02A899A85291301C080E0AD
:100CC0008A87CE01099697C08D889E88AF88B88C98
:100CD0000D851E852F853889E0E2F0E080E090E008
:100CE000DC01C12CD12C760140E050E0BA0180FE3D
:100CF00018C0400F511F621F731F8C0D9D1DAE1D2C
:100D0000BF1D412C512C32014394401751076207FB
:100D1000730718F0412C512C3201840D951DA61D2E
:100D2000B71DCC0CDD1CEE1CFF1C37FF02C0689405
:100D3000C0F8000F111F221F331FB694A794979479
:100D400087943197A1F62B893C89EB85FC852E0F82
:100D50003F1F2E5F3F4F3C832B8321E0EA893A857A
:100D6000E31301C020E02A83EB81FC810CC080FFEB
:100D700005C076956795579547957068B695A79580
:100D8000979587953196B7FDF2CF9F010CC0880FDC
:100D9000991FAA1FBB1F77FD8160440F551F661F57
:100DA000771F215031090097A105E0E4BE0778F3D1
:100DB0002B833C838C019D010F771127222733273A
:100DC000003411052105310559F487FD09C0452B73
:100DD000462B472B29F0805C9F4FAF4FBF4F807849
:100DE0008D839E83AF83B88783E08983CE0101968C
:100DF00002C080E690E00E945108A096E0E10C94C9
:100E0000B00AA8E1B0E0E7E0F7E00C94A20A6D8B2D
:100E10007E8B8F8B988F298B3A8B4B8B5C8BBE0193
:100E2000675F7F4FCE0145960E941209BE016F5F3A
:100E30007F4FCE0141960E9412098985823058F079
:100E40008981823040F0BE016F5F7F4FCE010996ED
:100E50000E94810901C08FEF6896E2E00C94BE0AFF
:100E6000A8E0B0E0E6E3F7E00C94A00A23E02983D1
:100E70008B019C01002737FD03951127222733277B
:100E8000402F0A83611571058105910519F482E0EF
:100E9000898335C02EE130E03C832B83442371F0FD
:100EA00061157105810520E8920771F1002711276E
:100EB0009801061B170B280B390B02C08B019C01F4
:100EC000C901B8010E94C90A0197181619062CF029
:100ED0000D831E832F83388712C0082E04C0000F95
:100EE000111F221F331F0A94D2F70D831E832F83F5
:100EF00038872EE130E0281B390B3C832B83CE0151
:100F000001960E94510804C060E070E080E09FEC10
:100F10002896E4E00C94BC0AACE0B0E0E2E9F7E02B
:100F20000C94A00A69877A878B879C87BE016F5FC4
:100F30007F4FCE0109960E9412098981823091F17A
:100F4000823080F1843041F48A81882331F100E0DD
:100F500010E020E030E829C02B813C8137FD22C021
:100F60002F3131058CF78EE190E0821B930B0D81C0
:100F70001E812F81388504C03695279517950795D2
:100F80008A95D2F78A81882381F030952095109533
:100F900001951F4F2F4F3F4F08C00FEF1FEF2FEF4F
:100FA0003FE703C000E010E09801B801C9012C96AA
:100FB000E4E00C94BC0AA8E0B0E0E1EEF7E00C94A9
:100FC0009C0A8B019C011A826115710581059105AE
:100FD00019F482E089835DC083E089834EE150E0AB
:100FE0005C834B83C901B8010E94C90A019797FF2E
:100FF00039C0EE27FF27E81BF90B41E050E060E025
:1010000070E00E2E04C0440F551F661F771F0A9410
:10101000D2F74150510961097109402351236223DC
:101020007323C12CD12C7601C394452B462B472B1F
:1010300019F4C12CD12C760104C03695279517954B
:101040000795EA95D2F70C291D292E293F290D83F2
:101050001E832F8338872EE130E0281B390B3C8319
:101060002B8317C0009729F40D831E832F833887A5
:1010700010C0082E04C0000F111F221F331F0A9436
:10108000D2F70D831E832F833887481B590B5C834F
:101090004B83CE0101960E9451082896E8E00C94FB
:1010A000B80A0F931F93CF93FC0144815581668149
:1010B0007781C1818081823020F460618FEF90E080
:1010C000A3C0843009F49BC0823009F492C041155A
:1010D00051056105710509F48FC0228133812238E1
:1010E0008FEF38070CF057C0E2E8FFEFE21BF30B7D
:1010F000EA31F10564F58A019B010E2E04C0369594
:101100002795179507950A94D2F781E090E0A0E023
:10111000B0E004C0880F991FAA1FBB1FEA95D2F741
:101120000197A109B10984239523A623B72341E0A0
:1011300050E060E070E0892B8A2B8B2B19F440E0A3
:1011400050E0BA01402B512B622B732B03C040E0BF
:1011500050E0BA01DB01CA018F779927AA27BB2784
:1011600080349105A105B10539F447FF09C0405C01
:101170005F4F6F4F7F4F04C0415C5F4F6F4F7F4F9A
:1011800081E090E041155105610520E4720748F5C2
:1011900080E090E026C0203831058CF5DB01CA01E3
:1011A0008F779927AA27BB2780349105A105B10520
:1011B00039F447FF09C0405C5F4F6F4F7F4F04C059
:1011C000415C5F4F6F4F7F4F77FD04C0C90181586D
:1011D0009F4F07C07695679557954795C9018058E9
:1011E0009F4F97E076956795579547959A95D1F7D4
:1011F0000BC080E090E005C080E090E005C08FEF7C
:1012000090E040E050E0BA01982F9695C0FB97F926
:10121000362F80FB37F9642F752F832FCF911F91C5
:101220000F910895CF92DF92EF92DC01FB01CC90F9
:101230001196DC90119712968C9112973FE7E32E4E
:10124000E8226E2DA60170E0982F991F9927991F0B
:1012500013962C91822F880F892B90E027FB222751
:1012600020F92183009729F5411551056105710584
:1012700011F482E027C082E89FEF9383828327E006
:10128000440F551F661F771F2A95D1F783E080838F
:1012900009C0440F551F661F771F828193810197F4
:1012A0009383828341155105610580E4780788F3B3
:1012B00020C08F3F910579F44115510561057105F5
:1012C00019F484E0808319C0E4FE03C081E08083C8
:1012D00010C010820EC08F5791099383828383E0E0
:1012E000808387E0440F551F661F771F8A95D1F7CB
:1012F00070644483558366837783EF90DF90CF904B
:101300000895CF93FC01DB019081923008F452C024
:101310008C91823008F44EC0943071F4843039F4EA
:1013200011962C9130E08181281B310948C08181C0
:10133000882309F43FC03BC0843029F411968C9176
:10134000811138C034C0923019F48230B9F735C0F9
:10135000823069F3C18111968C911197C8131DC019
:101360002281338112968D919C9113978217930756
:101370000CF413C0281739070CF417C044815581A9
:101380006681778114968D919D910D90BC91A02DD1
:1013900084179507A607B70718F4C11108C00AC03B
:1013A000481759076A077B0740F4C11103C02FEFA4
:1013B0003FEF05C021E030E002C020E030E0C9018D
:1013C000CF9108950E94490082E00E94D70360E017
:1013D00081E00E94AC0387E291E00E940E042FEFAF
:1013E00087EA91E6215080409040E1F700C000007C
:1013F00060E081E00E94AC030E944B010E948400E7
:101400000E94F10086E190E00E94FF000E946802C5
:10141000809140019091410183309105B9F03CF4F5
:101420008130910579F084F4892B51F0EFCF86302B
:10143000910581F088309105D9F1059739F708C0F9
:101440000E9484010E94F0020E94CB000E945C0175
:101450000E94A60287E090E00E944E000E948C0746
:10146000882777FD8095982F0E94300728E431EE79
:101470004EE250E40E94EC0520E030E048EC52E4FB
:101480000E941C060E948C07DC01CB0163E070E027
:101490000E941B042FEF89EF90E021508040904084
:1014A000E1F700C0000060E081E00E94AC03D2CF11
:1014B00081E391E00E940E042FEF89EF90E021502C
:1014C00080409040E1F700C0000060E081E00E94B1
:1014D000AC03EECF97FB072E16F4009407D077FDF0
:1014E00009D00E947E0A07FC05D03EF490958195B4
:1014F0009F4F0895709561957F4F0895AA1BBB1B60
:1015000051E107C0AA1FBB1FA617B70710F0A61B03
:10151000B70B881F991F5A95A9F780959095BC0124
:10152000CD0108952F923F924F925F926F927F92DA
:101530008F929F92AF92BF92CF92DF92EF92FF92E3
:101540000F931F93CF93DF93CDB7DEB7CA1BDB0B8F
:101550000FB6F894DEBF0FBECDBF09942A88398834
:1015600048885F846E847D848C849B84AA84B9843B
:10157000C884DF80EE80FD800C811B81AA81B98147
:10158000CE0FD11D0FB6F894DEBF0FBECDBFED015B
:1015900008950E94D20A84FF0895CB010E94D20AC6
:1015A000805F0895AA27992329F4A85F982B11F446
:1015B00080E10895903118F4AD5F9295A395990F4D
:0C15C000E8F78A2F99270895F894FFCFD0
:1015CC0000000000000000007072656B617A6B61B6
:1015DC00006E6172617A6E696B31006E6172617A54
:1015EC006E696B32007072656B617A6B612076701C
:1015FC0072656475006E6963005679687962616E14
:10160C006920736520003E3E00536C6564756A204A
:10161C006361727520003C3C00546573742D206D21
:10162C006F746F727500546573742D2070726564DD
:10163C006E6920736572766F00546573742D207A11
:10164C0061646E6920736572766F00546573742DD6
:10165C002073656E736F72206361727900546570CC
:10166C006C6F746120767A64756368750069737445
:10167C00726F2D74657374696E6700507265647354
:10168C0074617620736500415244415420312E30F0
:10169C00004E656A73656D204F4E55522121210015
:00000001FF
